20250518-08:21:13.199 : 8=FIX.4.4|9=75|35=A|34=1|49=CLIENT1|52=20250518-08:21:13.184|56=SERVER1|98=0|108=30|141=Y|10=042|
20250518-08:21:13.224 : 8=FIX.4.4|9=69|35=A|34=1|49=SERVER1|52=20250518-08:21:13.219|56=CLIENT1|98=0|108=30|10=255|
20250518-08:21:33.791 : 8=FIX.4.4|9=157|35=D|34=2|49=CLIENT1|52=20250518-08:21:33.790|56=SERVER1|11=3b63c955-3961-4575-b875-9848b440c30d|38=99999|40=2|44=999|54=2|55=PETR4|60=20250518-08:21:33.789|10=227|
20250518-08:21:33.807 : 8=FIX.4.4|9=255|35=8|34=2|49=SERVER1|52=20250518-08:21:33.806|56=CLIENT1|6=999|11=3b63c955-3961-4575-b875-9848b440c30d|14=99999|17=13b3c6ed-e056-4baa-b41f-2052cea6a997|31=999|32=99999|37=2efa5166-12e5-4ca7-86de-ad3fab91b081|38=99999|39=0|44=999|54=2|55=PETR4|150=0|151=0|10=205|
20250518-08:22:04.123 : 8=FIX.4.4|9=57|35=0|34=3|49=SERVER1|52=20250518-08:22:04.122|56=CLIENT1|10=206|
20250518-08:22:04.124 : 8=FIX.4.4|9=57|35=0|34=3|49=CLIENT1|52=20250518-08:22:04.124|56=SERVER1|10=208|
20250518-08:22:04.640 : 8=FIX.4.4|9=152|35=D|34=4|49=CLIENT1|52=20250518-08:22:04.639|56=SERVER1|11=86c06d3c-5d94-4653-80ee-3c184ebb784f|38=5|40=2|44=12|54=1|55=VALE3|60=20250518-08:22:04.639|10=130|
20250518-08:22:04.643 : 8=FIX.4.4|9=240|35=8|34=4|49=SERVER1|52=20250518-08:22:04.643|56=CLIENT1|6=12|11=86c06d3c-5d94-4653-80ee-3c184ebb784f|14=5|17=c7765088-5792-467a-81ea-6c2ad7e345df|31=12|32=5|37=9a3f7c8b-511b-41c2-b200-7e0dcd9018f2|38=5|39=0|44=12|54=1|55=VALE3|150=0|151=0|10=009|
20250518-08:35:48.728 : 8=FIX.4.4|9=75|35=A|34=1|49=CLIENT1|52=20250518-08:35:48.712|56=SERVER1|98=0|108=30|141=Y|10=052|
20250518-08:35:48.753 : 8=FIX.4.4|9=69|35=A|34=1|49=SERVER1|52=20250518-08:35:48.748|56=CLIENT1|98=0|108=30|10=019|
20250518-08:36:07.851 : 8=FIX.4.4|9=156|35=D|34=2|49=CLIENT1|52=20250518-08:36:07.850|56=SERVER1|11=efe38e8d-d0f6-42c8-8153-6a625b7c5cb0|38=1500|40=2|44=900|54=1|55=PETR4|60=20250518-08:36:07.849|10=197|
20250518-08:36:07.866 : 8=FIX.4.4|9=252|35=8|34=2|49=SERVER1|52=20250518-08:36:07.865|56=CLIENT1|6=900|11=efe38e8d-d0f6-42c8-8153-6a625b7c5cb0|14=1500|17=19618572-8a98-4315-bf27-1a59f7647305|31=900|32=1500|37=2cab3d89-4199-43ff-83df-776f9a95d3e2|38=1500|39=0|44=900|54=1|55=PETR4|150=0|151=0|10=024|
20250518-08:36:38.125 : 8=FIX.4.4|9=57|35=0|34=3|49=SERVER1|52=20250518-08:36:38.125|56=CLIENT1|10=221|
20250518-08:36:38.126 : 8=FIX.4.4|9=57|35=0|34=3|49=CLIENT1|52=20250518-08:36:38.126|56=SERVER1|10=222|
20250518-08:37:08.431 : 8=FIX.4.4|9=57|35=0|34=4|49=CLIENT1|52=20250518-08:37:08.431|56=SERVER1|10=220|
20250518-08:37:08.431 : 8=FIX.4.4|9=57|35=0|34=4|49=SERVER1|52=20250518-08:37:08.431|56=CLIENT1|10=220|
20250518-08:37:38.727 : 8=FIX.4.4|9=57|35=0|34=5|49=CLIENT1|52=20250518-08:37:38.727|56=SERVER1|10=232|
20250518-08:37:38.727 : 8=FIX.4.4|9=57|35=0|34=5|49=SERVER1|52=20250518-08:37:38.727|56=CLIENT1|10=232|
20250518-08:37:39.747 : 8=FIX.4.4|9=157|35=D|34=6|49=CLIENT1|52=20250518-08:37:39.746|56=SERVER1|11=91493a1b-0395-48ff-94ae-df085a122318|38=99999|40=2|44=999|54=1|55=PETR4|60=20250518-08:37:39.746|10=122|
20250518-08:37:39.749 : 8=FIX.4.4|9=287|35=8|34=6|49=SERVER1|52=20250518-08:37:39.749|56=CLIENT1|6=999|11=91493a1b-0395-48ff-94ae-df085a122318|14=99999|17=8d972422-a1c3-448c-8602-2c638a32af6f|31=999|32=99999|37=8a87841c-e571-4825-be5a-6c28cc9b0bd9|38=99999|39=8|44=999|54=1|55=PETR4|58=Limite de exposição excedido|150=8|151=0|10=152|
20250518-09:03:47.688 : 8=FIX.4.4|9=75|35=A|34=1|49=CLIENT1|52=20250518-09:03:47.673|56=SERVER1|98=0|108=30|141=Y|10=053|
20250518-09:03:47.719 : 8=FIX.4.4|9=69|35=A|34=1|49=SERVER1|52=20250518-09:03:47.713|56=CLIENT1|98=0|108=30|10=006|
20250518-09:03:59.870 : 8=FIX.4.4|9=156|35=D|34=2|49=CLIENT1|52=20250518-09:03:59.869|56=SERVER1|11=d3363c13-b46d-4796-ba5f-457c8fd8c933|38=9000|40=2|44=999|54=1|55=PETR4|60=20250518-09:03:59.868|10=146|
20250518-09:03:59.886 : 8=FIX.4.4|9=252|35=8|34=2|49=SERVER1|52=20250518-09:03:59.884|56=CLIENT1|6=999|11=d3363c13-b46d-4796-ba5f-457c8fd8c933|14=9000|17=dc9b876f-3372-4621-b88f-8d59c135566a|31=999|32=9000|37=3d1cb380-0c10-44ac-bf2f-f7a7f17ef6a9|38=9000|39=0|44=999|54=1|55=PETR4|150=0|151=0|10=046|
20250518-09:04:17.380 : 8=FIX.4.4|9=156|35=D|34=3|49=CLIENT1|52=20250518-09:04:17.380|56=SERVER1|11=bac9d887-fb65-46c4-b043-0b6a6d475cae|38=9000|40=2|44=999|54=1|55=PETR4|60=20250518-09:04:17.380|10=244|
20250518-09:04:17.384 : 8=FIX.4.4|9=252|35=8|34=3|49=SERVER1|52=20250518-09:04:17.383|56=CLIENT1|6=999|11=bac9d887-fb65-46c4-b043-0b6a6d475cae|14=9000|17=3b550ba7-0395-4ac8-8a0d-2f098e65ea75|31=999|32=9000|37=77157da1-d989-4473-9b5b-8f03afd4134e|38=9000|39=0|44=999|54=1|55=PETR4|150=0|151=0|10=025|
20250518-09:04:38.646 : 8=FIX.4.4|9=155|35=D|34=4|49=CLIENT1|52=20250518-09:04:38.646|56=SERVER1|11=bb796bd5-d095-47dd-9fbd-40ededfddce5|38=900|40=2|44=100|54=1|55=VALE3|60=20250518-09:04:38.646|10=163|
20250518-09:04:38.649 : 8=FIX.4.4|9=249|35=8|34=4|49=SERVER1|52=20250518-09:04:38.649|56=CLIENT1|6=100|11=bb796bd5-d095-47dd-9fbd-40ededfddce5|14=900|17=998032f2-f5ee-4eae-82bb-88004f722ceb|31=100|32=900|37=6ee766b2-529b-4688-b373-a4fc63555012|38=900|39=0|44=100|54=1|55=VALE3|150=0|151=0|10=052|
20250518-09:04:48.715 : 8=FIX.4.4|9=157|35=D|34=5|49=CLIENT1|52=20250518-09:04:48.714|56=SERVER1|11=a674c193-68e7-4675-a5f1-29b15dea47a7|38=99999|40=2|44=999|54=1|55=PETR4|60=20250518-09:04:48.714|10=161|
20250518-09:04:48.717 : 8=FIX.4.4|9=287|35=8|34=5|49=SERVER1|52=20250518-09:04:48.716|56=CLIENT1|6=999|11=a674c193-68e7-4675-a5f1-29b15dea47a7|14=99999|17=e4647f48-9663-4cdd-bb87-73e412d1278a|31=999|32=99999|37=51d41df8-a8b8-4ac0-a0b0-6fef9f3d6c96|38=99999|39=8|44=999|54=1|55=PETR4|58=Limite de exposição excedido|150=8|151=0|10=146|
20250518-09:22:00.021 : 8=FIX.4.4|9=75|35=A|34=1|49=CLIENT1|52=20250518-09:22:00.008|56=SERVER1|98=0|108=30|141=Y|10=035|
20250518-09:22:00.048 : 8=FIX.4.4|9=69|35=A|34=1|49=SERVER1|52=20250518-09:22:00.042|56=CLIENT1|98=0|108=30|10=247|
20250518-09:22:15.240 : 8=FIX.4.4|9=157|35=D|34=2|49=CLIENT1|52=20250518-09:22:15.239|56=SERVER1|11=2954fc4a-055f-4d35-8601-4149bb0cf180|38=99999|40=2|44=999|54=1|55=PETR4|60=20250518-09:22:15.238|10=079|
20250518-09:22:15.253 : 8=FIX.4.4|9=287|35=8|34=2|49=SERVER1|52=20250518-09:22:15.252|56=CLIENT1|6=999|11=2954fc4a-055f-4d35-8601-4149bb0cf180|14=99999|17=d4c18424-e61f-46af-a636-9ed511218186|31=999|32=99999|37=e1386a0b-b35f-4ff8-af06-94e2edf8dceb|38=99999|39=8|44=999|54=1|55=PETR4|58=Limite de exposição excedido|150=8|151=0|10=099|
20250518-09:22:44.589 : 8=FIX.4.4|9=155|35=D|34=3|49=CLIENT1|52=20250518-09:22:44.588|56=SERVER1|11=20a5b97d-6410-4548-bfb4-ad4de2b333a0|38=500|40=2|44=100|54=1|55=PETR4|60=20250518-09:22:44.588|10=066|
20250518-09:22:44.594 : 8=FIX.4.4|9=249|35=8|34=3|49=SERVER1|52=20250518-09:22:44.593|56=CLIENT1|6=100|11=20a5b97d-6410-4548-bfb4-ad4de2b333a0|14=500|17=78d3aa7d-c82f-4944-a8ec-5648f2d696da|31=100|32=500|37=ff8b0f55-54e4-4976-8eba-ede8a43af682|38=500|39=0|44=100|54=1|55=PETR4|150=0|151=0|10=255|
20250518-09:23:14.885 : 8=FIX.4.4|9=57|35=0|34=4|49=SERVER1|52=20250518-09:23:14.884|56=CLIENT1|10=225|
20250518-09:23:14.886 : 8=FIX.4.4|9=57|35=0|34=4|49=CLIENT1|52=20250518-09:23:14.885|56=SERVER1|10=226|
20250518-09:23:45.211 : 8=FIX.4.4|9=57|35=0|34=5|49=CLIENT1|52=20250518-09:23:45.211|56=SERVER1|10=214|
20250518-09:23:45.212 : 8=FIX.4.4|9=57|35=0|34=5|49=SERVER1|52=20250518-09:23:45.211|56=CLIENT1|10=214|
20250518-09:23:59.411 : 8=FIX.4.4|9=153|35=D|34=6|49=CLIENT1|52=20250518-09:23:59.411|56=SERVER1|11=743165f8-d405-4dff-98a2-2030527cf5bd|38=1|40=2|44=200|54=1|55=PETR4|60=20250518-09:23:59.411|10=136|
20250518-09:23:59.415 : 8=FIX.4.4|9=243|35=8|34=6|49=SERVER1|52=20250518-09:23:59.414|56=CLIENT1|6=200|11=743165f8-d405-4dff-98a2-2030527cf5bd|14=1|17=a0af1eef-fb95-4720-b2fb-14a0064a8158|31=200|32=1|37=eff10dc5-5c37-4a8f-b355-3243f383b309|38=1|39=0|44=200|54=1|55=PETR4|150=0|151=0|10=185|
20250518-09:24:29.675 : 8=FIX.4.4|9=57|35=0|34=7|49=SERVER1|52=20250518-09:24:29.674|56=CLIENT1|10=232|
20250518-09:24:29.675 : 8=FIX.4.4|9=57|35=0|34=7|49=CLIENT1|52=20250518-09:24:29.675|56=SERVER1|10=233|
20250518-09:28:16.601 : 8=FIX.4.4|9=75|35=A|34=1|49=CLIENT1|52=20250518-09:28:16.586|56=SERVER1|98=0|108=30|141=Y|10=059|
20250518-09:28:16.626 : 8=FIX.4.4|9=69|35=A|34=1|49=SERVER1|52=20250518-09:28:16.622|56=CLIENT1|98=0|108=30|10=008|
20250518-09:28:35.449 : 8=FIX.4.4|9=157|35=D|34=2|49=CLIENT1|52=20250518-09:28:35.448|56=SERVER1|11=8bb59df5-02cd-438a-9110-5879fbd5e478|38=99999|40=2|44=999|54=1|55=PETR4|60=20250518-09:28:35.447|10=221|
20250518-09:28:35.462 : 8=FIX.4.4|9=287|35=8|34=2|49=SERVER1|52=20250518-09:28:35.461|56=CLIENT1|6=999|11=8bb59df5-02cd-438a-9110-5879fbd5e478|14=99999|17=fe35c15d-0d12-4051-94fe-1b736dc39ffc|31=999|32=99999|37=63ecbfd5-d644-4499-9849-a59e6b1e0b93|38=99999|39=8|44=999|54=1|55=PETR4|58=Limite de exposição excedido|150=8|151=0|10=149|
20250518-09:29:05.713 : 8=FIX.4.4|9=57|35=0|34=3|49=SERVER1|52=20250518-09:29:05.713|56=CLIENT1|10=221|
20250518-09:29:05.714 : 8=FIX.4.4|9=57|35=0|34=3|49=CLIENT1|52=20250518-09:29:05.714|56=SERVER1|10=222|
20250518-09:29:21.868 : 8=FIX.4.4|9=152|35=D|34=4|49=CLIENT1|52=20250518-09:29:21.868|56=SERVER1|11=0296cebe-4c5e-4bfb-9b57-3d225b717277|38=1|40=2|44=10|54=1|55=PETR4|60=20250518-09:29:21.868|10=205|
20250518-09:29:21.873 : 8=FIX.4.4|9=240|35=8|34=4|49=SERVER1|52=20250518-09:29:21.873|56=CLIENT1|6=10|11=0296cebe-4c5e-4bfb-9b57-3d225b717277|14=1|17=784415cf-dcf5-4327-8bd7-983e3c39f0cb|31=10|32=1|37=384c11ef-3944-4360-9709-57ea3dfc09c5|38=1|39=0|44=10|54=1|55=PETR4|150=0|151=0|10=040|
20250518-09:29:52.139 : 8=FIX.4.4|9=57|35=0|34=5|49=SERVER1|52=20250518-09:29:52.138|56=CLIENT1|10=226|
20250518-09:29:52.139 : 8=FIX.4.4|9=57|35=0|34=5|49=CLIENT1|52=20250518-09:29:52.139|56=SERVER1|10=227|
20250518-09:30:22.416 : 8=FIX.4.4|9=57|35=0|34=6|49=SERVER1|52=20250518-09:30:22.416|56=CLIENT1|10=215|
20250518-09:30:22.417 : 8=FIX.4.4|9=57|35=0|34=6|49=CLIENT1|52=20250518-09:30:22.417|56=SERVER1|10=216|
20250518-09:30:52.727 : 8=FIX.4.4|9=57|35=0|34=7|49=CLIENT1|52=20250518-09:30:52.727|56=SERVER1|10=224|
20250518-09:30:52.727 : 8=FIX.4.4|9=57|35=0|34=7|49=SERVER1|52=20250518-09:30:52.727|56=CLIENT1|10=224|
20250518-09:31:23.030 : 8=FIX.4.4|9=57|35=0|34=8|49=CLIENT1|52=20250518-09:31:23.030|56=SERVER1|10=211|
20250518-09:31:23.031 : 8=FIX.4.4|9=57|35=0|34=8|49=SERVER1|52=20250518-09:31:23.030|56=CLIENT1|10=211|
20250518-09:31:53.296 : 8=FIX.4.4|9=57|35=0|34=9|49=SERVER1|52=20250518-09:31:53.295|56=CLIENT1|10=228|
20250518-09:31:53.296 : 8=FIX.4.4|9=57|35=0|34=9|49=CLIENT1|52=20250518-09:31:53.296|56=SERVER1|10=229|
20250518-09:32:23.556 : 8=FIX.4.4|9=58|35=0|34=10|49=CLIENT1|52=20250518-09:32:23.556|56=SERVER1|10=011|
20250518-09:32:23.556 : 8=FIX.4.4|9=58|35=0|34=10|49=SERVER1|52=20250518-09:32:23.556|56=CLIENT1|10=011|
20250518-09:32:53.851 : 8=FIX.4.4|9=58|35=0|34=11|49=CLIENT1|52=20250518-09:32:53.851|56=SERVER1|10=013|
20250518-09:32:53.851 : 8=FIX.4.4|9=58|35=0|34=11|49=SERVER1|52=20250518-09:32:53.851|56=CLIENT1|10=013|
20250518-09:33:24.117 : 8=FIX.4.4|9=58|35=0|34=12|49=CLIENT1|52=20250518-09:33:24.117|56=SERVER1|10=008|
20250518-09:33:24.117 : 8=FIX.4.4|9=58|35=0|34=12|49=SERVER1|52=20250518-09:33:24.117|56=CLIENT1|10=008|
20250518-09:33:54.410 : 8=FIX.4.4|9=58|35=0|34=13|49=CLIENT1|52=20250518-09:33:54.409|56=SERVER1|10=016|
20250518-09:33:54.410 : 8=FIX.4.4|9=58|35=0|34=13|49=SERVER1|52=20250518-09:33:54.409|56=CLIENT1|10=016|
20250518-09:34:24.689 : 8=FIX.4.4|9=58|35=0|34=14|49=CLIENT1|52=20250518-09:34:24.688|56=SERVER1|10=024|
20250518-09:34:24.689 : 8=FIX.4.4|9=58|35=0|34=14|49=SERVER1|52=20250518-09:34:24.688|56=CLIENT1|10=024|
20250518-09:34:54.938 : 8=FIX.4.4|9=58|35=0|34=15|49=SERVER1|52=20250518-09:34:54.938|56=CLIENT1|10=026|
20250518-09:34:54.938 : 8=FIX.4.4|9=58|35=0|34=15|49=CLIENT1|52=20250518-09:34:54.938|56=SERVER1|10=026|
20250518-09:35:25.196 : 8=FIX.4.4|9=58|35=0|34=16|49=CLIENT1|52=20250518-09:35:25.196|56=SERVER1|10=022|
20250518-09:35:25.196 : 8=FIX.4.4|9=58|35=0|34=16|49=SERVER1|52=20250518-09:35:25.196|56=CLIENT1|10=022|
20250518-09:35:55.467 : 8=FIX.4.4|9=58|35=0|34=17|49=CLIENT1|52=20250518-09:35:55.467|56=SERVER1|10=027|
20250518-09:35:55.467 : 8=FIX.4.4|9=58|35=0|34=17|49=SERVER1|52=20250518-09:35:55.463|56=CLIENT1|10=023|
20250518-09:36:25.732 : 8=FIX.4.4|9=58|35=0|34=18|49=CLIENT1|52=20250518-09:36:25.732|56=SERVER1|10=021|
20250518-09:36:25.736 : 8=FIX.4.4|9=58|35=0|34=18|49=SERVER1|52=20250518-09:36:25.732|56=CLIENT1|10=021|
20250518-09:36:55.998 : 8=FIX.4.4|9=58|35=0|34=19|49=SERVER1|52=20250518-09:36:55.994|56=CLIENT1|10=035|
20250518-09:36:55.998 : 8=FIX.4.4|9=58|35=0|34=19|49=CLIENT1|52=20250518-09:36:55.998|56=SERVER1|10=039|
20250518-09:37:26.287 : 8=FIX.4.4|9=58|35=0|34=20|49=CLIENT1|52=20250518-09:37:26.287|56=SERVER1|10=021|
20250518-09:37:26.292 : 8=FIX.4.4|9=58|35=0|34=20|49=SERVER1|52=20250518-09:37:26.287|56=CLIENT1|10=021|
20250518-09:37:56.525 : 8=FIX.4.4|9=58|35=0|34=21|49=SERVER1|52=20250518-09:37:56.519|56=CLIENT1|10=023|
20250518-09:37:56.525 : 8=FIX.4.4|9=58|35=0|34=21|49=CLIENT1|52=20250518-09:37:56.525|56=SERVER1|10=020|
20250518-09:49:53.513 : 8=FIX.4.4|9=75|35=A|34=1|49=CLIENT1|52=20250518-09:49:53.498|56=SERVER1|98=0|108=30|141=Y|10=065|
20250518-09:49:53.542 : 8=FIX.4.4|9=69|35=A|34=1|49=SERVER1|52=20250518-09:49:53.538|56=CLIENT1|98=0|108=30|10=018|
20250518-09:50:08.138 : 8=FIX.4.4|9=157|35=D|34=2|49=CLIENT1|52=20250518-09:50:08.137|56=SERVER1|11=9bbc08c2-1fac-42d2-a59f-b8fd9b2095a2|38=99999|40=2|44=999|54=1|55=PETR4|60=20250518-09:50:08.136|10=113|
20250518-09:50:08.149 : 8=FIX.4.4|9=255|35=8|34=2|49=SERVER1|52=20250518-09:50:08.148|56=CLIENT1|6=999|11=9bbc08c2-1fac-42d2-a59f-b8fd9b2095a2|14=99999|17=3e805a82-0b43-4662-bb5f-fd2ce7cba3de|31=999|32=99999|37=7957c5ea-3c09-4949-8b7e-50d5a7bfe5b3|38=99999|39=0|44=999|54=1|55=PETR4|150=0|151=0|10=090|
20250518-09:50:28.147 : 8=FIX.4.4|9=157|35=D|34=3|49=CLIENT1|52=20250518-09:50:28.147|56=SERVER1|11=fa0621d7-06fc-4c9f-92fe-83c654c17e43|38=99999|40=2|44=999|54=1|55=PETR4|60=20250518-09:50:28.147|10=248|
20250518-09:50:28.148 : 8=FIX.4.4|9=287|35=8|34=3|49=SERVER1|52=20250518-09:50:28.148|56=CLIENT1|6=999|11=fa0621d7-06fc-4c9f-92fe-83c654c17e43|14=99999|17=55b25a8c-3f9c-4d0e-95b5-69f9b32d2850|31=999|32=99999|37=c8f22757-d93f-4d70-be98-bcb7349e5cb2|38=99999|39=8|44=999|54=1|55=PETR4|58=Limite de exposição excedido|150=8|151=0|10=196|
20250518-09:50:58.469 : 8=FIX.4.4|9=57|35=0|34=4|49=CLIENT1|52=20250518-09:50:58.468|56=SERVER1|10=231|
20250518-09:50:58.469 : 8=FIX.4.4|9=57|35=0|34=4|49=SERVER1|52=20250518-09:50:58.468|56=CLIENT1|10=231|
20250518-09:51:07.154 : 8=FIX.4.4|9=151|35=D|34=5|49=CLIENT1|52=20250518-09:51:07.154|56=SERVER1|11=d498c3a3-7a1e-48c4-9ae0-0e65bf3332b2|38=1|40=2|44=1|54=1|55=PETR4|60=20250518-09:51:07.154|10=118|
20250518-09:51:07.156 : 8=FIX.4.4|9=237|35=8|34=5|49=SERVER1|52=20250518-09:51:07.155|56=CLIENT1|6=1|11=d498c3a3-7a1e-48c4-9ae0-0e65bf3332b2|14=1|17=68885a69-d2ad-4410-bed0-bf0bf9b20a73|31=1|32=1|37=5e363a43-a591-4cf6-b2a4-26283b14bac4|38=1|39=0|44=1|54=1|55=PETR4|150=0|151=0|10=229|
20250518-09:51:37.464 : 8=FIX.4.4|9=57|35=0|34=6|49=SERVER1|52=20250518-09:51:37.463|56=CLIENT1|10=226|
20250518-09:51:37.464 : 8=FIX.4.4|9=57|35=0|34=6|49=CLIENT1|52=20250518-09:51:37.464|56=SERVER1|10=227|
20250518-09:52:07.729 : 8=FIX.4.4|9=57|35=0|34=7|49=CLIENT1|52=20250518-09:52:07.728|56=SERVER1|10=229|
20250518-09:52:07.733 : 8=FIX.4.4|9=57|35=0|34=7|49=SERVER1|52=20250518-09:52:07.733|56=CLIENT1|10=225|
20250518-09:52:08.879 : 8=FIX.4.4|9=155|35=D|34=8|49=CLIENT1|52=20250518-09:52:08.879|56=SERVER1|11=bbbf6ec8-ca33-4079-9f11-cb758fb946ac|38=500|40=2|44=999|54=1|55=PETR4|60=20250518-09:52:08.879|10=026|
20250518-09:52:08.880 : 8=FIX.4.4|9=281|35=8|34=8|49=SERVER1|52=20250518-09:52:08.880|56=CLIENT1|6=999|11=bbbf6ec8-ca33-4079-9f11-cb758fb946ac|14=500|17=41164176-c031-4707-bd83-5bb5683a35a7|31=999|32=500|37=9176bc29-783e-426c-a659-65d75b7a158a|38=500|39=8|44=999|54=1|55=PETR4|58=Limite de exposição excedido|150=8|151=0|10=041|
20250518-09:52:32.925 : 8=FIX.4.4|9=155|35=D|34=9|49=CLIENT1|52=20250518-09:52:32.925|56=SERVER1|11=1dd42212-5177-40c8-ad52-0a843929acb1|38=150|40=2|44=999|54=1|55=PETR4|60=20250518-09:52:32.925|10=203|
20250518-09:52:32.930 : 8=FIX.4.4|9=281|35=8|34=9|49=SERVER1|52=20250518-09:52:32.930|56=CLIENT1|6=999|11=1dd42212-5177-40c8-ad52-0a843929acb1|14=150|17=7ba6652e-1354-4d72-8fd7-01bae9527f59|31=999|32=150|37=7bc73a50-d822-4094-a588-4967285ca686|38=150|39=8|44=999|54=1|55=PETR4|58=Limite de exposição excedido|150=8|151=0|10=046|
20250518-09:52:59.804 : 8=FIX.4.4|9=155|35=D|34=10|49=CLIENT1|52=20250518-09:52:59.803|56=SERVER1|11=d5c9ace2-1c75-4e1c-bf40-c44ab080295b|38=10|40=2|44=999|54=1|55=PETR4|60=20250518-09:52:59.803|10=185|
20250518-09:52:59.810 : 8=FIX.4.4|9=247|35=8|34=10|49=SERVER1|52=20250518-09:52:59.810|56=CLIENT1|6=999|11=d5c9ace2-1c75-4e1c-bf40-c44ab080295b|14=10|17=54bb41b3-ac6f-4635-aacc-0e1654f7c57a|31=999|32=10|37=2b5c7444-5765-42b9-a582-87c87e05d3c9|38=10|39=0|44=999|54=1|55=PETR4|150=0|151=0|10=043|
20250518-09:53:27.904 : 8=FIX.4.4|9=158|35=D|34=11|49=CLIENT1|52=20250518-09:53:27.903|56=SERVER1|11=0760098e-c2c5-4709-9a2e-57e4edfb7d02|38=99999|40=2|44=999|54=1|55=VALE3|60=20250518-09:53:27.903|10=230|
20250518-09:53:27.910 : 8=FIX.4.4|9=256|35=8|34=11|49=SERVER1|52=20250518-09:53:27.909|56=CLIENT1|6=999|11=0760098e-c2c5-4709-9a2e-57e4edfb7d02|14=99999|17=ffc15ca4-bb84-4d1a-8025-97e929770cad|31=999|32=99999|37=7e057d6e-a122-463d-b89d-13685e6f4a4b|38=99999|39=0|44=999|54=1|55=VALE3|150=0|151=0|10=061|
20250518-09:53:58.211 : 8=FIX.4.4|9=58|35=0|34=12|49=CLIENT1|52=20250518-09:53:58.210|56=SERVER1|10=011|
20250518-09:53:58.215 : 8=FIX.4.4|9=58|35=0|34=12|49=SERVER1|52=20250518-09:53:58.215|56=CLIENT1|10=016|
20250518-09:54:15.539 : 8=FIX.4.4|9=158|35=D|34=13|49=CLIENT1|52=20250518-09:54:15.539|56=SERVER1|11=0af3323f-07b0-42ef-ac06-ae8289f3a698|38=99999|40=2|44=999|54=2|55=VALE3|60=20250518-09:54:15.539|10=021|
20250518-09:54:15.540 : 8=FIX.4.4|9=256|35=8|34=13|49=SERVER1|52=20250518-09:54:15.540|56=CLIENT1|6=999|11=0af3323f-07b0-42ef-ac06-ae8289f3a698|14=99999|17=bc64c9d5-ed51-46c1-aecb-59aa9f646a32|31=999|32=99999|37=c5d47f2c-55d8-44cb-bd7b-b50f70076175|38=99999|39=0|44=999|54=2|55=VALE3|150=0|151=0|10=225|
20250518-09:54:39.500 : 8=FIX.4.4|9=154|35=D|34=14|49=CLIENT1|52=20250518-09:54:39.500|56=SERVER1|11=df00effa-9a15-4ee9-8eea-16339b63bd21|38=1|40=2|44=100|54=2|55=VALE3|60=20250518-09:54:39.499|10=163|
20250518-09:54:39.508 : 8=FIX.4.4|9=244|35=8|34=14|49=SERVER1|52=20250518-09:54:39.508|56=CLIENT1|6=100|11=df00effa-9a15-4ee9-8eea-16339b63bd21|14=1|17=86779570-084d-4cfa-a983-b250855c95f1|31=100|32=1|37=106573ac-b032-4b1e-a55d-a361cb29239d|38=1|39=0|44=100|54=2|55=VALE3|150=0|151=0|10=230|
20250518-09:55:00.626 : 8=FIX.4.4|9=154|35=D|34=15|49=CLIENT1|52=20250518-09:55:00.626|56=SERVER1|11=bd74c6bc-b211-49ad-aa40-1e44e495ff2a|38=1|40=2|44=100|54=1|55=VALE3|60=20250518-09:55:00.626|10=127|
20250518-09:55:00.634 : 8=FIX.4.4|9=244|35=8|34=15|49=SERVER1|52=20250518-09:55:00.633|56=CLIENT1|6=100|11=bd74c6bc-b211-49ad-aa40-1e44e495ff2a|14=1|17=05cfd6d8-251c-4888-8177-5ab62a8297e2|31=100|32=1|37=7d2ffe96-521e-42c3-b905-7841fe220971|38=1|39=0|44=100|54=1|55=VALE3|150=0|151=0|10=185|
20250518-09:55:30.913 : 8=FIX.4.4|9=58|35=0|34=16|49=SERVER1|52=20250518-09:55:30.913|56=CLIENT1|10=017|
20250518-09:55:30.913 : 8=FIX.4.4|9=58|35=0|34=16|49=CLIENT1|52=20250518-09:55:30.913|56=SERVER1|10=017|
