20250516-18:43:46.642 : 8=FIX.4.4|9=69|35=A|34=1|49=CLIENT1|52=20250516-18:43:46.635|56=SERVER1|98=0|108=30|10=010|
20250516-18:43:46.670 : 8=FIX.4.4|9=108|35=5|34=40|49=SERVER1|52=20250516-18:43:46.665|56=CLIENT1|58=MsgSeqNum too low, expecting 40 but received 1|10=014|
20250516-18:43:46.686 : 8=FIX.4.4|9=57|35=5|34=2|49=CLIENT1|52=20250516-18:43:46.685|56=SERVER1|10=232|
20250516-18:44:12.830 : 8=FIX.4.4|9=69|35=A|34=3|49=CLIENT1|52=20250516-18:44:12.830|56=SERVER1|98=0|108=30|10=003|
20250516-18:44:12.834 : 8=FIX.4.4|9=108|35=5|34=41|49=SERVER1|52=20250516-18:44:12.833|56=CLIENT1|58=MsgSeqNum too low, expecting 40 but received 3|10=008|
20250516-18:44:12.834 : 8=FIX.4.4|9=57|35=5|34=4|49=CLIENT1|52=20250516-18:44:12.834|56=SERVER1|10=224|
20250516-18:47:18.464 : 8=FIX.4.4|9=69|35=A|34=5|49=CLIENT1|52=20250516-18:47:18.411|56=SERVER1|98=0|108=30|10=009|
20250516-18:47:18.471 : 8=FIX.4.4|9=108|35=5|34=42|49=SERVER1|52=20250516-18:47:18.469|56=CLIENT1|58=MsgSeqNum too low, expecting 40 but received 5|10=025|
20250516-18:47:18.475 : 8=FIX.4.4|9=57|35=5|34=6|49=CLIENT1|52=20250516-18:47:18.475|56=SERVER1|10=236|
20250516-18:47:49.055 : 8=FIX.4.4|9=69|35=A|34=8|49=CLIENT1|52=20250516-18:47:49.054|56=SERVER1|98=0|108=30|10=019|
20250516-18:47:49.057 : 8=FIX.4.4|9=108|35=5|34=43|49=SERVER1|52=20250516-18:47:49.057|56=CLIENT1|58=MsgSeqNum too low, expecting 40 but received 8|10=026|
20250516-18:47:49.057 : 8=FIX.4.4|9=57|35=5|34=9|49=CLIENT1|52=20250516-18:47:49.057|56=SERVER1|10=239|
20250516-18:48:19.397 : 8=FIX.4.4|9=70|35=A|34=10|49=CLIENT1|52=20250516-18:48:19.397|56=SERVER1|98=0|108=30|10=060|
20250516-18:48:19.400 : 8=FIX.4.4|9=109|35=5|34=44|49=SERVER1|52=20250516-18:48:19.400|56=CLIENT1|58=MsgSeqNum too low, expecting 40 but received 10|10=059|
20250516-18:48:19.400 : 8=FIX.4.4|9=58|35=5|34=11|49=CLIENT1|52=20250516-18:48:19.400|56=SERVER1|10=015|
20250516-18:48:49.662 : 8=FIX.4.4|9=70|35=A|34=12|49=CLIENT1|52=20250516-18:48:49.661|56=SERVER1|98=0|108=30|10=059|
20250516-18:49:19.903 : 8=FIX.4.4|9=70|35=A|34=13|49=CLIENT1|52=20250516-18:49:19.903|56=SERVER1|98=0|108=30|10=057|
20250516-18:49:50.159 : 8=FIX.4.4|9=70|35=A|34=14|49=CLIENT1|52=20250516-18:49:50.159|56=SERVER1|98=0|108=30|10=056|
20250516-18:52:37.275 : 8=FIX.4.4|9=70|35=A|34=15|49=CLIENT1|52=20250516-18:52:37.269|56=SERVER1|98=0|108=30|10=058|
20250516-18:52:37.278 : 8=FIX.4.4|9=109|35=5|34=52|49=SERVER1|52=20250516-18:52:37.276|56=CLIENT1|58=MsgSeqNum too low, expecting 51 but received 15|10=071|
20250516-18:52:37.287 : 8=FIX.4.4|9=58|35=5|34=16|49=CLIENT1|52=20250516-18:52:37.282|56=SERVER1|10=023|
20250516-18:53:07.983 : 8=FIX.4.4|9=70|35=A|34=18|49=CLIENT1|52=20250516-18:53:07.983|56=SERVER1|98=0|108=30|10=062|
20250516-18:53:07.986 : 8=FIX.4.4|9=109|35=5|34=53|49=SERVER1|52=20250516-18:53:07.986|56=CLIENT1|58=MsgSeqNum too low, expecting 51 but received 18|10=081|
20250516-18:53:07.986 : 8=FIX.4.4|9=58|35=5|34=19|49=CLIENT1|52=20250516-18:53:07.986|56=SERVER1|10=035|
20250516-19:01:36.800 : 8=FIX.4.4|9=70|35=A|34=20|49=CLIENT1|52=20250516-19:01:36.794|56=SERVER1|98=0|108=30|10=051|
20250516-19:01:36.801 : 8=FIX.4.4|9=156|35=D|34=21|49=CLIENT1|52=20250516-19:01:36.800|56=SERVER1|11=d9d6499c-bdcf-49ce-b602-1a793dcb618a|38=2|40=2|44=500.2|54=1|55=PETR4|60=20250516-19:01:36.789|10=020|
20250516-19:01:36.827 : 8=FIX.4.4|9=109|35=5|34=54|49=SERVER1|52=20250516-19:01:36.823|56=CLIENT1|58=MsgSeqNum too low, expecting 51 but received 20|10=061|
20250516-19:01:36.832 : 8=FIX.4.4|9=58|35=5|34=22|49=CLIENT1|52=20250516-19:01:36.832|56=SERVER1|10=015|
20250516-19:06:19.713 : 8=FIX.4.4|9=70|35=A|34=23|49=CLIENT1|52=20250516-19:06:19.695|56=SERVER1|98=0|108=30|10=060|
20250516-19:06:19.722 : 8=FIX.4.4|9=109|35=5|34=55|49=SERVER1|52=20250516-19:06:19.717|56=CLIENT1|58=MsgSeqNum too low, expecting 51 but received 23|10=073|
20250516-19:06:19.727 : 8=FIX.4.4|9=58|35=5|34=24|49=CLIENT1|52=20250516-19:06:19.727|56=SERVER1|10=026|
20250516-19:06:36.922 : 8=FIX.4.4|9=70|35=A|34=25|49=CLIENT1|52=20250516-19:06:36.921|56=SERVER1|98=0|108=30|10=053|
20250516-19:06:36.924 : 8=FIX.4.4|9=109|35=5|34=56|49=SERVER1|52=20250516-19:06:36.924|56=CLIENT1|58=MsgSeqNum too low, expecting 51 but received 25|10=075|
20250516-19:06:36.924 : 8=FIX.4.4|9=58|35=5|34=26|49=CLIENT1|52=20250516-19:06:36.924|56=SERVER1|10=026|
20250516-19:07:07.157 : 8=FIX.4.4|9=70|35=A|34=27|49=CLIENT1|52=20250516-19:07:07.157|56=SERVER1|98=0|108=30|10=055|
20250516-19:07:07.160 : 8=FIX.4.4|9=109|35=5|34=57|49=SERVER1|52=20250516-19:07:07.160|56=CLIENT1|58=MsgSeqNum too low, expecting 51 but received 27|10=069|
20250516-19:07:07.161 : 8=FIX.4.4|9=58|35=5|34=28|49=CLIENT1|52=20250516-19:07:07.160|56=SERVER1|10=019|
20250516-19:07:37.427 : 8=FIX.4.4|9=70|35=A|34=29|49=CLIENT1|52=20250516-19:07:37.427|56=SERVER1|98=0|108=30|10=060|
20250516-19:07:37.430 : 8=FIX.4.4|9=109|35=5|34=58|49=SERVER1|52=20250516-19:07:37.430|56=CLIENT1|58=MsgSeqNum too low, expecting 51 but received 29|10=075|
20250516-19:07:37.430 : 8=FIX.4.4|9=58|35=5|34=30|49=CLIENT1|52=20250516-19:07:37.430|56=SERVER1|10=015|
20250516-19:08:07.676 : 8=FIX.4.4|9=70|35=A|34=31|49=CLIENT1|52=20250516-19:08:07.676|56=SERVER1|98=0|108=30|10=057|
20250516-19:08:07.678 : 8=FIX.4.4|9=109|35=5|34=59|49=SERVER1|52=20250516-19:08:07.678|56=CLIENT1|58=MsgSeqNum too low, expecting 51 but received 31|10=081|
20250516-19:08:07.678 : 8=FIX.4.4|9=58|35=5|34=32|49=CLIENT1|52=20250516-19:08:07.678|56=SERVER1|10=029|
20250516-19:08:37.942 : 8=FIX.4.4|9=70|35=A|34=33|49=CLIENT1|52=20250516-19:08:37.942|56=SERVER1|98=0|108=30|10=058|
20250516-19:08:37.945 : 8=FIX.4.4|9=109|35=5|34=60|49=SERVER1|52=20250516-19:08:37.944|56=CLIENT1|58=MsgSeqNum too low, expecting 51 but received 33|10=074|
20250516-19:08:37.945 : 8=FIX.4.4|9=58|35=5|34=34|49=CLIENT1|52=20250516-19:08:37.945|56=SERVER1|10=031|
20250516-19:09:08.244 : 8=FIX.4.4|9=70|35=A|34=35|49=CLIENT1|52=20250516-19:09:08.244|56=SERVER1|98=0|108=30|10=054|
20250516-19:09:08.246 : 8=FIX.4.4|9=109|35=5|34=61|49=SERVER1|52=20250516-19:09:08.246|56=CLIENT1|58=MsgSeqNum too low, expecting 51 but received 35|10=071|
20250516-19:09:08.247 : 8=FIX.4.4|9=58|35=5|34=36|49=CLIENT1|52=20250516-19:09:08.247|56=SERVER1|10=027|
20250516-19:11:50.153 : 8=FIX.4.4|9=70|35=A|34=37|49=CLIENT1|52=20250516-19:11:50.146|56=SERVER1|98=0|108=30|10=047|
20250516-19:11:50.159 : 8=FIX.4.4|9=109|35=5|34=62|49=SERVER1|52=20250516-19:11:50.157|56=CLIENT1|58=MsgSeqNum too low, expecting 51 but received 37|10=065|
20250516-19:11:50.194 : 8=FIX.4.4|9=58|35=5|34=38|49=CLIENT1|52=20250516-19:11:50.194|56=SERVER1|10=020|
20250516-19:12:19.341 : 8=FIX.4.4|9=70|35=A|34=39|49=CLIENT1|52=20250516-19:12:19.341|56=SERVER1|98=0|108=30|10=052|
20250516-19:12:19.343 : 8=FIX.4.4|9=109|35=5|34=63|49=SERVER1|52=20250516-19:12:19.343|56=CLIENT1|58=MsgSeqNum too low, expecting 51 but received 39|10=071|
20250516-19:12:19.343 : 8=FIX.4.4|9=58|35=5|34=40|49=CLIENT1|52=20250516-19:12:19.343|56=SERVER1|10=015|
20250516-19:12:54.959 : 8=FIX.4.4|9=70|35=A|34=41|49=CLIENT1|52=20250516-19:12:50.486|56=SERVER1|98=0|108=30|10=050|
20250516-19:12:54.967 : 8=FIX.4.4|9=109|35=5|34=64|49=SERVER1|52=20250516-19:12:54.963|56=CLIENT1|58=MsgSeqNum too low, expecting 51 but received 41|10=072|
20250516-19:12:59.404 : 8=FIX.4.4|9=58|35=5|34=42|49=CLIENT1|52=20250516-19:12:57.413|56=SERVER1|10=017|
20250516-19:13:24.529 : 8=FIX.4.4|9=70|35=A|34=43|49=CLIENT1|52=20250516-19:13:20.596|56=SERVER1|98=0|108=30|10=052|
20250516-19:13:24.533 : 8=FIX.4.4|9=109|35=5|34=65|49=SERVER1|52=20250516-19:13:24.533|56=CLIENT1|58=MsgSeqNum too low, expecting 51 but received 43|10=066|
20250516-19:13:29.284 : 8=FIX.4.4|9=58|35=5|34=44|49=CLIENT1|52=20250516-19:13:26.381|56=SERVER1|10=020|
20250516-20:18:11.729 : 8=FIX.4.4|9=70|35=A|34=45|49=CLIENT1|52=20250516-20:18:10.717|56=SERVER1|98=0|108=30|10=045|
20250516-20:18:11.772 : 8=FIX.4.4|9=109|35=5|34=74|49=SERVER1|52=20250516-20:18:11.757|56=CLIENT1|58=MsgSeqNum too low, expecting 64 but received 45|10=073|
20250516-20:18:15.575 : 8=FIX.4.4|9=58|35=5|34=46|49=CLIENT1|52=20250516-20:18:13.688|56=SERVER1|10=025|
20250516-20:18:45.766 : 8=FIX.4.4|9=70|35=A|34=47|49=CLIENT1|52=20250516-20:18:38.236|56=SERVER1|98=0|108=30|10=053|
20250516-20:18:45.771 : 8=FIX.4.4|9=109|35=5|34=75|49=SERVER1|52=20250516-20:18:45.771|56=CLIENT1|58=MsgSeqNum too low, expecting 64 but received 47|10=079|
20250516-20:18:47.822 : 8=FIX.4.4|9=58|35=5|34=48|49=CLIENT1|52=20250516-20:18:46.628|56=SERVER1|10=027|
