8=FIX.4.4|9=75|35=A|34=1|49=CLIENT1|52=20250518-09:49:53.498|56=SERVER1|98=0|108=30|141=Y|10=065|8=FIX.4.4|9=157|35=D|34=2|49=CLIENT1|52=20250518-09:50:08.137|56=SERVER1|11=9bbc08c2-1fac-42d2-a59f-b8fd9b2095a2|38=99999|40=2|44=999|54=1|55=PETR4|60=20250518-09:50:08.136|10=113|8=FIX.4.4|9=157|35=D|34=3|49=CLIENT1|52=20250518-09:50:28.147|56=SERVER1|11=fa0621d7-06fc-4c9f-92fe-83c654c17e43|38=99999|40=2|44=999|54=1|55=PETR4|60=20250518-09:50:28.147|10=248|8=FIX.4.4|9=57|35=0|34=4|49=CLIENT1|52=20250518-09:50:58.468|56=SERVER1|10=231|8=FIX.4.4|9=151|35=D|34=5|49=CLIENT1|52=20250518-09:51:07.154|56=SERVER1|11=d498c3a3-7a1e-48c4-9ae0-0e65bf3332b2|38=1|40=2|44=1|54=1|55=PETR4|60=20250518-09:51:07.154|10=118|8=FIX.4.4|9=57|35=0|34=6|49=CLIENT1|52=20250518-09:51:37.464|56=SERVER1|10=227|8=FIX.4.4|9=57|35=0|34=7|49=CLIENT1|52=20250518-09:52:07.728|56=SERVER1|10=229|8=FIX.4.4|9=155|35=D|34=8|49=CLIENT1|52=20250518-09:52:08.879|56=SERVER1|11=bbbf6ec8-ca33-4079-9f11-cb758fb946ac|38=500|40=2|44=999|54=1|55=PETR4|60=20250518-09:52:08.879|10=026|8=FIX.4.4|9=155|35=D|34=9|49=CLIENT1|52=20250518-09:52:32.925|56=SERVER1|11=1dd42212-5177-40c8-ad52-0a843929acb1|38=150|40=2|44=999|54=1|55=PETR4|60=20250518-09:52:32.925|10=203|8=FIX.4.4|9=155|35=D|34=10|49=CLIENT1|52=20250518-09:52:59.803|56=SERVER1|11=d5c9ace2-1c75-4e1c-bf40-c44ab080295b|38=10|40=2|44=999|54=1|55=PETR4|60=20250518-09:52:59.803|10=185|8=FIX.4.4|9=158|35=D|34=11|49=CLIENT1|52=20250518-09:53:27.903|56=SERVER1|11=0760098e-c2c5-4709-9a2e-57e4edfb7d02|38=99999|40=2|44=999|54=1|55=VALE3|60=20250518-09:53:27.903|10=230|8=FIX.4.4|9=58|35=0|34=12|49=CLIENT1|52=20250518-09:53:58.210|56=SERVER1|10=011|8=FIX.4.4|9=158|35=D|34=13|49=CLIENT1|52=20250518-09:54:15.539|56=SERVER1|11=0af3323f-07b0-42ef-ac06-ae8289f3a698|38=99999|40=2|44=999|54=2|55=VALE3|60=20250518-09:54:15.539|10=021|8=FIX.4.4|9=154|35=D|34=14|49=CLIENT1|52=20250518-09:54:39.500|56=SERVER1|11=df00effa-9a15-4ee9-8eea-16339b63bd21|38=1|40=2|44=100|54=2|55=VALE3|60=20250518-09:54:39.499|10=163|8=FIX.4.4|9=154|35=D|34=15|49=CLIENT1|52=20250518-09:55:00.626|56=SERVER1|11=bd74c6bc-b211-49ad-aa40-1e44e495ff2a|38=1|40=2|44=100|54=1|55=VALE3|60=20250518-09:55:00.626|10=127|8=FIX.4.4|9=58|35=0|34=16|49=CLIENT1|52=20250518-09:55:30.913|56=SERVER1|10=017|