8=FIX.4.4|9=69|35=A|34=1|49=CLIENT1|52=20250516-18:43:46.635|56=SERVER1|98=0|108=30|10=010|8=FIX.4.4|9=57|35=5|34=2|49=CLIENT1|52=20250516-18:43:46.685|56=SERVER1|10=232|8=FIX.4.4|9=69|35=A|34=3|49=CLIENT1|52=20250516-18:44:12.830|56=SERVER1|98=0|108=30|10=003|8=FIX.4.4|9=57|35=5|34=4|49=CLIENT1|52=20250516-18:44:12.834|56=SERVER1|10=224|8=FIX.4.4|9=69|35=A|34=5|49=CLIENT1|52=20250516-18:47:18.411|56=SERVER1|98=0|108=30|10=009|8=FIX.4.4|9=57|35=5|34=6|49=CLIENT1|52=20250516-18:47:18.475|56=SERVER1|10=236|8=FIX.4.4|9=152|35=D|34=7|49=CLIENT1|52=20250516-18:47:43.240|56=SERVER1|11=e877b577-8612-477e-bfc1-248fe4df1fbc|38=6|40=2|44=12|54=1|55=PETR4|60=20250516-18:47:39.849|10=015|8=FIX.4.4|9=69|35=A|34=8|49=CLIENT1|52=20250516-18:47:49.054|56=SERVER1|98=0|108=30|10=019|8=FIX.4.4|9=57|35=5|34=9|49=CLIENT1|52=20250516-18:47:49.057|56=SERVER1|10=239|8=FIX.4.4|9=70|35=A|34=10|49=CLIENT1|52=20250516-18:48:19.397|56=SERVER1|98=0|108=30|10=060|8=FIX.4.4|9=58|35=5|34=11|49=CLIENT1|52=20250516-18:48:19.400|56=SERVER1|10=015|8=FIX.4.4|9=70|35=A|34=12|49=CLIENT1|52=20250516-18:48:49.661|56=SERVER1|98=0|108=30|10=059|8=FIX.4.4|9=70|35=A|34=13|49=CLIENT1|52=20250516-18:49:19.903|56=SERVER1|98=0|108=30|10=057|8=FIX.4.4|9=70|35=A|34=14|49=CLIENT1|52=20250516-18:49:50.159|56=SERVER1|98=0|108=30|10=056|8=FIX.4.4|9=70|35=A|34=15|49=CLIENT1|52=20250516-18:52:37.269|56=SERVER1|98=0|108=30|10=058|8=FIX.4.4|9=58|35=5|34=16|49=CLIENT1|52=20250516-18:52:37.282|56=SERVER1|10=023|8=FIX.4.4|9=153|35=D|34=17|49=CLIENT1|52=20250516-18:53:01.911|56=SERVER1|11=55560aee-a7a1-41a4-8a82-3d361611a2f4|38=3|40=2|44=12|54=2|55=PETR4|60=20250516-18:53:01.910|10=104|8=FIX.4.4|9=70|35=A|34=18|49=CLIENT1|52=20250516-18:53:07.983|56=SERVER1|98=0|108=30|10=062|8=FIX.4.4|9=58|35=5|34=19|49=CLIENT1|52=20250516-18:53:07.986|56=SERVER1|10=035|8=FIX.4.4|9=70|35=A|34=20|49=CLIENT1|52=20250516-19:01:36.794|56=SERVER1|98=0|108=30|10=051|8=FIX.4.4|9=156|35=D|34=21|49=CLIENT1|52=20250516-19:01:36.800|56=SERVER1|11=d9d6499c-bdcf-49ce-b602-1a793dcb618a|38=2|40=2|44=500.2|54=1|55=PETR4|60=20250516-19:01:36.789|10=020|8=FIX.4.4|9=58|35=5|34=22|49=CLIENT1|52=20250516-19:01:36.832|56=SERVER1|10=015|8=FIX.4.4|9=70|35=A|34=23|49=CLIENT1|52=20250516-19:06:19.695|56=SERVER1|98=0|108=30|10=060|8=FIX.4.4|9=58|35=5|34=24|49=CLIENT1|52=20250516-19:06:19.727|56=SERVER1|10=026|8=FIX.4.4|9=70|35=A|34=25|49=CLIENT1|52=20250516-19:06:36.921|56=SERVER1|98=0|108=30|10=053|8=FIX.4.4|9=58|35=5|34=26|49=CLIENT1|52=20250516-19:06:36.924|56=SERVER1|10=026|8=FIX.4.4|9=70|35=A|34=27|49=CLIENT1|52=20250516-19:07:07.157|56=SERVER1|98=0|108=30|10=055|8=FIX.4.4|9=58|35=5|34=28|49=CLIENT1|52=20250516-19:07:07.160|56=SERVER1|10=019|8=FIX.4.4|9=70|35=A|34=29|49=CLIENT1|52=20250516-19:07:37.427|56=SERVER1|98=0|108=30|10=060|8=FIX.4.4|9=58|35=5|34=30|49=CLIENT1|52=20250516-19:07:37.430|56=SERVER1|10=015|8=FIX.4.4|9=70|35=A|34=31|49=CLIENT1|52=20250516-19:08:07.676|56=SERVER1|98=0|108=30|10=057|8=FIX.4.4|9=58|35=5|34=32|49=CLIENT1|52=20250516-19:08:07.678|56=SERVER1|10=029|8=FIX.4.4|9=70|35=A|34=33|49=CLIENT1|52=20250516-19:08:37.942|56=SERVER1|98=0|108=30|10=058|8=FIX.4.4|9=58|35=5|34=34|49=CLIENT1|52=20250516-19:08:37.945|56=SERVER1|10=031|8=FIX.4.4|9=70|35=A|34=35|49=CLIENT1|52=20250516-19:09:08.244|56=SERVER1|98=0|108=30|10=054|8=FIX.4.4|9=58|35=5|34=36|49=CLIENT1|52=20250516-19:09:08.247|56=SERVER1|10=027|8=FIX.4.4|9=70|35=A|34=37|49=CLIENT1|52=20250516-19:11:50.146|56=SERVER1|98=0|108=30|10=047|8=FIX.4.4|9=58|35=5|34=38|49=CLIENT1|52=20250516-19:11:50.194|56=SERVER1|10=020|8=FIX.4.4|9=70|35=A|34=39|49=CLIENT1|52=20250516-19:12:19.341|56=SERVER1|98=0|108=30|10=052|8=FIX.4.4|9=58|35=5|34=40|49=CLIENT1|52=20250516-19:12:19.343|56=SERVER1|10=015|8=FIX.4.4|9=70|35=A|34=41|49=CLIENT1|52=20250516-19:12:50.486|56=SERVER1|98=0|108=30|10=050|8=FIX.4.4|9=58|35=5|34=42|49=CLIENT1|52=20250516-19:12:57.413|56=SERVER1|10=017|8=FIX.4.4|9=70|35=A|34=43|49=CLIENT1|52=20250516-19:13:20.596|56=SERVER1|98=0|108=30|10=052|8=FIX.4.4|9=58|35=5|34=44|49=CLIENT1|52=20250516-19:13:26.381|56=SERVER1|10=020|8=FIX.4.4|9=70|35=A|34=45|49=CLIENT1|52=20250516-20:18:10.717|56=SERVER1|98=0|108=30|10=045|8=FIX.4.4|9=58|35=5|34=46|49=CLIENT1|52=20250516-20:18:13.688|56=SERVER1|10=025|8=FIX.4.4|9=70|35=A|34=47|49=CLIENT1|52=20250516-20:18:38.236|56=SERVER1|98=0|108=30|10=053|8=FIX.4.4|9=58|35=5|34=48|49=CLIENT1|52=20250516-20:18:46.628|56=SERVER1|10=027|